{
  "_format": "hh-sol-artifact-1",
  "contractName": "LookUpContract",
  "sourceName": "contracts/LookUpContract.sol",
  "abi": [
    {
      "anonymous": false,
      "inputs": [
        {
          "indexed": true,
          "internalType": "address",
          "name": "donor",
          "type": "address"
        },
        {
          "indexed": false,
          "internalType": "uint256",
          "name": "amount",
          "type": "uint256"
        }
      ],
      "name": "DonationReceived",
      "type": "event"
    },
    {
      "anonymous": false,
      "inputs": [
        {
          "indexed": true,
          "internalType": "uint256",
          "name": "id",
          "type": "uint256"
        },
        {
          "indexed": true,
          "internalType": "address",
          "name": "owner",
          "type": "address"
        },
        {
          "indexed": true,
          "internalType": "string",
          "name": "token",
          "type": "string"
        }
      ],
      "name": "ERC20TokenListed",
      "type": "event"
    },
    {
      "inputs": [
        {
          "internalType": "address",
          "name": "_owner",
          "type": "address"
        },
        {
          "internalType": "string",
          "name": "_tokenSupply",
          "type": "string"
        },
        {
          "internalType": "string",
          "name": "_tokenName",
          "type": "string"
        },
        {
          "internalType": "string",
          "name": "_tokenSymbol",
          "type": "string"
        },
        {
          "internalType": "string",
          "name": "_tokenAddress",
          "type": "string"
        },
        {
          "internalType": "string",
          "name": "_tokenTransactionHash",
          "type": "string"
        },
        {
          "internalType": "string",
          "name": "_tokenCreatedDate",
          "type": "string"
        }
      ],
      "name": "createERC20Token",
      "outputs": [
        {
          "internalType": "uint256",
          "name": "",
          "type": "uint256"
        },
        {
          "internalType": "address",
          "name": "",
          "type": "address"
        },
        {
          "internalType": "string",
          "name": "",
          "type": "string"
        },
        {
          "internalType": "string",
          "name": "",
          "type": "string"
        },
        {
          "internalType": "string",
          "name": "",
          "type": "string"
        },
        {
          "internalType": "string",
          "name": "",
          "type": "string"
        }
      ],
      "stateMutability": "payable",
      "type": "function"
    },
    {
      "inputs": [],
      "name": "donate",
      "outputs": [],
      "stateMutability": "payable",
      "type": "function"
    },
    {
      "inputs": [],
      "name": "getAllDonation",
      "outputs": [
        {
          "components": [
            {
              "internalType": "uint256",
              "name": "donationID",
              "type": "uint256"
            },
            {
              "internalType": "address",
              "name": "donor",
              "type": "address"
            },
            {
              "internalType": "uint256",
              "name": "fund",
              "type": "uint256"
            }
          ],
          "internalType": "struct LookUpContract.Donation[]",
          "name": "",
          "type": "tuple[]"
        }
      ],
      "stateMutability": "view",
      "type": "function"
    },
    {
      "inputs": [],
      "name": "getAllERC20TokenListed",
      "outputs": [
        {
          "components": [
            {
              "internalType": "uint256",
              "name": "tokenID",
              "type": "uint256"
            },
            {
              "internalType": "address",
              "name": "owner",
              "type": "address"
            },
            {
              "internalType": "string",
              "name": "tokenSupply",
              "type": "string"
            },
            {
              "internalType": "string",
              "name": "tokenName",
              "type": "string"
            },
            {
              "internalType": "string",
              "name": "tokenSymbol",
              "type": "string"
            },
            {
              "internalType": "string",
              "name": "tokenAddress",
              "type": "string"
            },
            {
              "internalType": "string",
              "name": "tokenTransactionHash",
              "type": "string"
            },
            {
              "internalType": "string",
              "name": "tokenCreatedDate",
              "type": "string"
            }
          ],
          "internalType": "struct LookUpContract.ERC20Token[]",
          "name": "",
          "type": "tuple[]"
        }
      ],
      "stateMutability": "view",
      "type": "function"
    },
    {
      "inputs": [],
      "name": "getContractBalance",
      "outputs": [
        {
          "internalType": "uint256",
          "name": "",
          "type": "uint256"
        }
      ],
      "stateMutability": "view",
      "type": "function"
    },
    {
      "inputs": [
        {
          "internalType": "uint256",
          "name": "_tokenID",
          "type": "uint256"
        }
      ],
      "name": "getERC20Token",
      "outputs": [
        {
          "internalType": "uint256",
          "name": "",
          "type": "uint256"
        },
        {
          "internalType": "address",
          "name": "",
          "type": "address"
        },
        {
          "internalType": "string",
          "name": "",
          "type": "string"
        },
        {
          "internalType": "string",
          "name": "",
          "type": "string"
        },
        {
          "internalType": "string",
          "name": "",
          "type": "string"
        },
        {
          "internalType": "string",
          "name": "",
          "type": "string"
        },
        {
          "internalType": "string",
          "name": "",
          "type": "string"
        },
        {
          "internalType": "string",
          "name": "",
          "type": "string"
        }
      ],
      "stateMutability": "view",
      "type": "function"
    },
    {
      "inputs": [],
      "name": "getERC20TokenListingPrice",
      "outputs": [
        {
          "internalType": "uint256",
          "name": "",
          "type": "uint256"
        }
      ],
      "stateMutability": "view",
      "type": "function"
    },
    {
      "inputs": [
        {
          "internalType": "address",
          "name": "_user",
          "type": "address"
        }
      ],
      "name": "getUserERC20Tokens",
      "outputs": [
        {
          "components": [
            {
              "internalType": "uint256",
              "name": "tokenID",
              "type": "uint256"
            },
            {
              "internalType": "address",
              "name": "owner",
              "type": "address"
            },
            {
              "internalType": "string",
              "name": "tokenSupply",
              "type": "string"
            },
            {
              "internalType": "string",
              "name": "tokenName",
              "type": "string"
            },
            {
              "internalType": "string",
              "name": "tokenSymbol",
              "type": "string"
            },
            {
              "internalType": "string",
              "name": "tokenAddress",
              "type": "string"
            },
            {
              "internalType": "string",
              "name": "tokenTransactionHash",
              "type": "string"
            },
            {
              "internalType": "string",
              "name": "tokenCreatedDate",
              "type": "string"
            }
          ],
          "internalType": "struct LookUpContract.ERC20Token[]",
          "name": "",
          "type": "tuple[]"
        }
      ],
      "stateMutability": "view",
      "type": "function"
    },
    {
      "inputs": [],
      "name": "s_donationIndex",
      "outputs": [
        {
          "internalType": "uint256",
          "name": "",
          "type": "uint256"
        }
      ],
      "stateMutability": "view",
      "type": "function"
    },
    {
      "inputs": [],
      "name": "s_listingPrice",
      "outputs": [
        {
          "internalType": "uint256",
          "name": "",
          "type": "uint256"
        }
      ],
      "stateMutability": "view",
      "type": "function"
    },
    {
      "inputs": [],
      "name": "s_tokenIndex",
      "outputs": [
        {
          "internalType": "uint256",
          "name": "",
          "type": "uint256"
        }
      ],
      "stateMutability": "view",
      "type": "function"
    },
    {
      "inputs": [
        {
          "internalType": "uint256",
          "name": "_listingPrice",
          "type": "uint256"
        },
        {
          "internalType": "address",
          "name": "_owner",
          "type": "address"
        }
      ],
      "name": "updateListingPrice",
      "outputs": [],
      "stateMutability": "payable",
      "type": "function"
    },
    {
      "inputs": [],
      "name": "withdrwa",
      "outputs": [],
      "stateMutability": "nonpayable",
      "type": "function"
    }
  ],
  "bytecode": "0x60806040526608e1bc9bf0400060045534801561001b57600080fd5b506127118061002b6000396000f3fe6080604052600436106100c25760003560e01c80636f9fb98a1161007f578063a218547711610059578063a218547714610240578063a581889a1461027d578063abc9e8c9146102b2578063ed88c68e146102dd576100c2565b80636f9fb98a146101ce57806380cad5a6146101f95780639463c83814610215576100c2565b80630fbf0e31146100c75780631ccd61271461010b578063313262571461013657806352e9a1a0146101615780635b7af1311461018c5780635cd3dd41146101b7575b600080fd5b3480156100d357600080fd5b506100ee60048036038101906100e99190611caa565b6102e7565b60405161010298979695949392919061230d565b60405180910390f35b34801561011757600080fd5b50610120610725565b60405161012d9190612275565b60405180910390f35b34801561014257600080fd5b5061014b61072b565b6040516101589190612275565b60405180910390f35b34801561016d57600080fd5b50610176610731565b60405161018391906121b1565b60405180910390f35b34801561019857600080fd5b506101a16108d4565b6040516101ae91906121d3565b60405180910390f35b3480156101c357600080fd5b506101cc610dd9565b005b3480156101da57600080fd5b506101e3610f01565b6040516101f09190612275565b60405180910390f35b610213600480360381019061020e9190611cd3565b610f8b565b005b34801561022157600080fd5b5061022a61109a565b6040516102379190612275565b60405180910390f35b34801561024c57600080fd5b5061026760048036038101906102629190611b53565b6110a4565b60405161027491906121d3565b60405180910390f35b61029760048036038101906102929190611b7c565b6116c8565b6040516102a996959493929190612290565b60405180910390f35b3480156102be57600080fd5b506102c7611866565b6040516102d49190612275565b60405180910390f35b6102e561186c565b005b60008060608060608060608060008060008b815260200190815260200160002060405180610100016040529081600082015481526020016001820160009054906101000a900473ffffffffffffffffffffffffffffffffffffffff1673ffffffffffffffffffffffffffffffffffffffff1673ffffffffffffffffffffffffffffffffffffffff16815260200160028201805461038390612594565b80601f01602080910402602001604051908101604052809291908181526020018280546103af90612594565b80156103fc5780601f106103d1576101008083540402835291602001916103fc565b820191906000526020600020905b8154815290600101906020018083116103df57829003601f168201915b5050505050815260200160038201805461041590612594565b80601f016020809104026020016040519081016040528092919081815260200182805461044190612594565b801561048e5780601f106104635761010080835404028352916020019161048e565b820191906000526020600020905b81548152906001019060200180831161047157829003601f168201915b505050505081526020016004820180546104a790612594565b80601f01602080910402602001604051908101604052809291908181526020018280546104d390612594565b80156105205780601f106104f557610100808354040283529160200191610520565b820191906000526020600020905b81548152906001019060200180831161050357829003601f168201915b5050505050815260200160058201805461053990612594565b80601f016020809104026020016040519081016040528092919081815260200182805461056590612594565b80156105b25780601f10610587576101008083540402835291602001916105b2565b820191906000526020600020905b81548152906001019060200180831161059557829003601f168201915b505050505081526020016006820180546105cb90612594565b80601f01602080910402602001604051908101604052809291908181526020018280546105f790612594565b80156106445780601f1061061957610100808354040283529160200191610644565b820191906000526020600020905b81548152906001019060200180831161062757829003601f168201915b5050505050815260200160078201805461065d90612594565b80601f016020809104026020016040519081016040528092919081815260200182805461068990612594565b80156106d65780601f106106ab576101008083540402835291602001916106d6565b820191906000526020600020905b8154815290600101906020018083116106b957829003601f168201915b5050505050815250509050806000015181602001518260400151836060015184608001518560a001518660c001518760e001519850985098509850985098509850985050919395975091939597565b60035481565b60025481565b6060600060035490506000808267ffffffffffffffff81111561077d577f4e487b7100000000000000000000000000000000000000000000000000000000600052604160045260246000fd5b6040519080825280602002602001820160405280156107b657816020015b6107a361198c565b81526020019060019003908161079b5790505b50905060005b838110156108ca5760006001826107d391906124c0565b9050600060016000838152602001908152602001600020905080604051806060016040529081600082015481526020016001820160009054906101000a900473ffffffffffffffffffffffffffffffffffffffff1673ffffffffffffffffffffffffffffffffffffffff1673ffffffffffffffffffffffffffffffffffffffff16815260200160028201548152505084868151811061089b577f4e487b7100000000000000000000000000000000000000000000000000000000600052603260045260246000fd5b60200260200101819052506001856108b391906124c0565b9450505080806108c2906125c6565b9150506107bc565b5080935050505090565b6060600060025490506000808267ffffffffffffffff811115610920577f4e487b7100000000000000000000000000000000000000000000000000000000600052604160045260246000fd5b60405190808252806020026020018201604052801561095957816020015b6109466119c3565b81526020019060019003908161093e5790505b50905060005b83811015610dcf57600060018261097691906124c0565b9050600080600083815260200190815260200160002090508060405180610100016040529081600082015481526020016001820160009054906101000a900473ffffffffffffffffffffffffffffffffffffffff1673ffffffffffffffffffffffffffffffffffffffff1673ffffffffffffffffffffffffffffffffffffffff168152602001600282018054610a0b90612594565b80601f0160208091040260200160405190810160405280929190818152602001828054610a3790612594565b8015610a845780601f10610a5957610100808354040283529160200191610a84565b820191906000526020600020905b815481529060010190602001808311610a6757829003601f168201915b50505050508152602001600382018054610a9d90612594565b80601f0160208091040260200160405190810160405280929190818152602001828054610ac990612594565b8015610b165780601f10610aeb57610100808354040283529160200191610b16565b820191906000526020600020905b815481529060010190602001808311610af957829003601f168201915b50505050508152602001600482018054610b2f90612594565b80601f0160208091040260200160405190810160405280929190818152602001828054610b5b90612594565b8015610ba85780601f10610b7d57610100808354040283529160200191610ba8565b820191906000526020600020905b815481529060010190602001808311610b8b57829003601f168201915b50505050508152602001600582018054610bc190612594565b80601f0160208091040260200160405190810160405280929190818152602001828054610bed90612594565b8015610c3a5780601f10610c0f57610100808354040283529160200191610c3a565b820191906000526020600020905b815481529060010190602001808311610c1d57829003601f168201915b50505050508152602001600682018054610c5390612594565b80601f0160208091040260200160405190810160405280929190818152602001828054610c7f90612594565b8015610ccc5780601f10610ca157610100808354040283529160200191610ccc565b820191906000526020600020905b815481529060010190602001808311610caf57829003601f168201915b50505050508152602001600782018054610ce590612594565b80601f0160208091040260200160405190810160405280929190818152602001828054610d1190612594565b8015610d5e5780601f10610d3357610100808354040283529160200191610d5e565b820191906000526020600020905b815481529060010190602001808311610d4157829003601f168201915b505050505081525050848681518110610da0577f4e487b7100000000000000000000000000000000000000000000000000000000600052603260045260246000fd5b6020026020010181905250600185610db891906124c0565b945050508080610dc7906125c6565b91505061095f565b5080935050505090565b73f30403d6b4286c56cc930e1962f7384eab50b76a73ffffffffffffffffffffffffffffffffffffffff163373ffffffffffffffffffffffffffffffffffffffff1614610e5b576040517f08c379a0000000000000000000000000000000000000000000000000000000008152600401610e5290612215565b60405180910390fd5b600047905060008111610ea3576040517f08c379a0000000000000000000000000000000000000000000000000000000008152600401610e9a90612235565b60405180910390fd5b73f30403d6b4286c56cc930e1962f7384eab50b76a73ffffffffffffffffffffffffffffffffffffffff166108fc829081150290604051600060405180830381858888f19350505050158015610efd573d6000803e3d6000fd5b5050565b600073f30403d6b4286c56cc930e1962f7384eab50b76a73ffffffffffffffffffffffffffffffffffffffff163373ffffffffffffffffffffffffffffffffffffffff1614610f85576040517f08c379a0000000000000000000000000000000000000000000000000000000008152600401610f7c90612215565b60405180910390fd5b47905090565b73f30403d6b4286c56cc930e1962f7384eab50b76a73ffffffffffffffffffffffffffffffffffffffff163373ffffffffffffffffffffffffffffffffffffffff161461100d576040517f08c379a000000000000000000000000000000000000000000000000000000000815260040161100490612215565b60405180910390fd5b73f30403d6b4286c56cc930e1962f7384eab50b76a73ffffffffffffffffffffffffffffffffffffffff168173ffffffffffffffffffffffffffffffffffffffff161461108f576040517f08c379a000000000000000000000000000000000000000000000000000000000815260040161108690612255565b60405180910390fd5b816004819055505050565b6000600454905090565b60606000600254905060008060005b83811015611153578573ffffffffffffffffffffffffffffffffffffffff166000806001846110e291906124c0565b815260200190815260200160002060010160009054906101000a900473ffffffffffffffffffffffffffffffffffffffff1673ffffffffffffffffffffffffffffffffffffffff1614156111405760018361113d91906124c0565b92505b808061114b906125c6565b9150506110b3565b5060008267ffffffffffffffff811115611196577f4e487b7100000000000000000000000000000000000000000000000000000000600052604160045260246000fd5b6040519080825280602002602001820160405280156111cf57816020015b6111bc6119c3565b8152602001906001900390816111b45790505b50905060005b848110156116bb578673ffffffffffffffffffffffffffffffffffffffff1660008060018461120491906124c0565b815260200190815260200160002060010160009054906101000a900473ffffffffffffffffffffffffffffffffffffffff1673ffffffffffffffffffffffffffffffffffffffff1614156116a857600060018261126191906124c0565b9050600080600083815260200190815260200160002090508060405180610100016040529081600082015481526020016001820160009054906101000a900473ffffffffffffffffffffffffffffffffffffffff1673ffffffffffffffffffffffffffffffffffffffff1673ffffffffffffffffffffffffffffffffffffffff1681526020016002820180546112f690612594565b80601f016020809104026020016040519081016040528092919081815260200182805461132290612594565b801561136f5780601f106113445761010080835404028352916020019161136f565b820191906000526020600020905b81548152906001019060200180831161135257829003601f168201915b5050505050815260200160038201805461138890612594565b80601f01602080910402602001604051908101604052809291908181526020018280546113b490612594565b80156114015780601f106113d657610100808354040283529160200191611401565b820191906000526020600020905b8154815290600101906020018083116113e457829003601f168201915b5050505050815260200160048201805461141a90612594565b80601f016020809104026020016040519081016040528092919081815260200182805461144690612594565b80156114935780601f1061146857610100808354040283529160200191611493565b820191906000526020600020905b81548152906001019060200180831161147657829003601f168201915b505050505081526020016005820180546114ac90612594565b80601f01602080910402602001604051908101604052809291908181526020018280546114d890612594565b80156115255780601f106114fa57610100808354040283529160200191611525565b820191906000526020600020905b81548152906001019060200180831161150857829003601f168201915b5050505050815260200160068201805461153e90612594565b80601f016020809104026020016040519081016040528092919081815260200182805461156a90612594565b80156115b75780601f1061158c576101008083540402835291602001916115b7565b820191906000526020600020905b81548152906001019060200180831161159a57829003601f168201915b505050505081526020016007820180546115d090612594565b80601f01602080910402602001604051908101604052809291908181526020018280546115fc90612594565b80156116495780601f1061161e57610100808354040283529160200191611649565b820191906000526020600020905b81548152906001019060200180831161162c57829003601f168201915b50505050508152505084868151811061168b577f4e487b7100000000000000000000000000000000000000000000000000000000600052603260045260246000fd5b60200260200101819052506001856116a391906124c0565b945050505b80806116b3906125c6565b9150506111d5565b5080945050505050919050565b600080606080606080600260008154809291906116e4906125c6565b919050555060006002549050600080600083815260200190815260200160002090508181600001819055508e8160010160006101000a81548173ffffffffffffffffffffffffffffffffffffffff021916908373ffffffffffffffffffffffffffffffffffffffff1602179055508d81600201908051906020019061176a929190611a1e565b508c816003019080519060200190611783929190611a1e565b508b81600401908051906020019061179c929190611a1e565b508a8160050190805190602001906117b5929190611a1e565b50898160060190805190602001906117ce929190611a1e565b50888160070190805190602001906117e7929190611a1e565b508a6040516117f6919061219a565b60405180910390208f73ffffffffffffffffffffffffffffffffffffffff16837f72e070645b8753b7561512bdcd5680da44ba132de789fec82d235d43ec008d9b60405160405180910390a4818f8c8f8f8f97509750975097509750975050509750975097509750975097915050565b60045481565b600034116118af576040517f08c379a00000000000000000000000000000000000000000000000000000000081526004016118a6906121f5565b60405180910390fd5b600360008154809291906118c2906125c6565b9190505550600060035490506000600160008381526020019081526020016000209050818160000181905550338160010160006101000a81548173ffffffffffffffffffffffffffffffffffffffff021916908373ffffffffffffffffffffffffffffffffffffffff1602179055503481600201819055503373ffffffffffffffffffffffffffffffffffffffff167f264f630d9efa0d07053a31163641d9fcc0adafc9d9e76f1c37c2ce3a558d2c52346040516119809190612275565b60405180910390a25050565b604051806060016040528060008152602001600073ffffffffffffffffffffffffffffffffffffffff168152602001600081525090565b60405180610100016040528060008152602001600073ffffffffffffffffffffffffffffffffffffffff1681526020016060815260200160608152602001606081526020016060815260200160608152602001606081525090565b828054611a2a90612594565b90600052602060002090601f016020900481019282611a4c5760008555611a93565b82601f10611a6557805160ff1916838001178555611a93565b82800160010185558215611a93579182015b82811115611a92578251825591602001919060010190611a77565b5b509050611aa09190611aa4565b5090565b5b80821115611abd576000816000905550600101611aa5565b5090565b6000611ad4611acf846123e6565b6123b5565b905082815260208101848484011115611aec57600080fd5b611af7848285612552565b509392505050565b600081359050611b0e816126ad565b92915050565b600082601f830112611b2557600080fd5b8135611b35848260208601611ac1565b91505092915050565b600081359050611b4d816126c4565b92915050565b600060208284031215611b6557600080fd5b6000611b7384828501611aff565b91505092915050565b600080600080600080600060e0888a031215611b9757600080fd5b6000611ba58a828b01611aff565b975050602088013567ffffffffffffffff811115611bc257600080fd5b611bce8a828b01611b14565b965050604088013567ffffffffffffffff811115611beb57600080fd5b611bf78a828b01611b14565b955050606088013567ffffffffffffffff811115611c1457600080fd5b611c208a828b01611b14565b945050608088013567ffffffffffffffff811115611c3d57600080fd5b611c498a828b01611b14565b93505060a088013567ffffffffffffffff811115611c6657600080fd5b611c728a828b01611b14565b92505060c088013567ffffffffffffffff811115611c8f57600080fd5b611c9b8a828b01611b14565b91505092959891949750929550565b600060208284031215611cbc57600080fd5b6000611cca84828501611b3e565b91505092915050565b60008060408385031215611ce657600080fd5b6000611cf485828601611b3e565b9250506020611d0585828601611aff565b9150509250929050565b6000611d1b8383612067565b60608301905092915050565b6000611d3383836120a9565b905092915050565b611d4481612516565b82525050565b611d5381612516565b82525050565b6000611d6482612436565b611d6e8185612471565b9350611d7983612416565b8060005b83811015611daa578151611d918882611d0f565b9750611d9c83612457565b925050600181019050611d7d565b5085935050505092915050565b6000611dc282612441565b611dcc8185612482565b935083602082028501611dde85612426565b8060005b85811015611e1a5784840389528151611dfb8582611d27565b9450611e0683612464565b925060208a01995050600181019050611de2565b50829750879550505050505092915050565b6000611e378261244c565b611e418185612493565b9350611e51818560208601612561565b611e5a8161269c565b840191505092915050565b6000611e708261244c565b611e7a81856124a4565b9350611e8a818560208601612561565b611e938161269c565b840191505092915050565b6000611ea98261244c565b611eb381856124b5565b9350611ec3818560208601612561565b80840191505092915050565b6000611edc6026836124a4565b91507f446f6e6174696f6e20616d6f756e74206d75737420626520677265617465722060008301527f7468616e203000000000000000000000000000000000000000000000000000006020830152604082019050919050565b6000611f426037836124a4565b91507f6f6e6c79206f776e6572206f662074686520636f6e74726163742063616e206360008301527f68616e676520746865206c697374696e672070726963650000000000000000006020830152604082019050919050565b6000611fa86025836124a4565b91507f4e6f20646f6e6174696f6e7320617661696c61626c6520666f7220776974686460008301527f726177616c0000000000000000000000000000000000000000000000000000006020830152604082019050919050565b600061200e602c836124a4565b91507f4f6e6c7920636f6e7472616374206f776e65722063616e20757064617465206c60008301527f697374696e6720707269636500000000000000000000000000000000000000006020830152604082019050919050565b60608201600082015161207d600085018261217c565b5060208201516120906020850182611d3b565b5060408201516120a3604085018261217c565b50505050565b6000610100830160008301516120c2600086018261217c565b5060208301516120d56020860182611d3b565b50604083015184820360408601526120ed8282611e2c565b915050606083015184820360608601526121078282611e2c565b915050608083015184820360808601526121218282611e2c565b91505060a083015184820360a086015261213b8282611e2c565b91505060c083015184820360c08601526121558282611e2c565b91505060e083015184820360e086015261216f8282611e2c565b9150508091505092915050565b61218581612548565b82525050565b61219481612548565b82525050565b60006121a68284611e9e565b915081905092915050565b600060208201905081810360008301526121cb8184611d59565b905092915050565b600060208201905081810360008301526121ed8184611db7565b905092915050565b6000602082019050818103600083015261220e81611ecf565b9050919050565b6000602082019050818103600083015261222e81611f35565b9050919050565b6000602082019050818103600083015261224e81611f9b565b9050919050565b6000602082019050818103600083015261226e81612001565b9050919050565b600060208201905061228a600083018461218b565b92915050565b600060c0820190506122a5600083018961218b565b6122b26020830188611d4a565b81810360408301526122c48187611e65565b905081810360608301526122d88186611e65565b905081810360808301526122ec8185611e65565b905081810360a08301526123008184611e65565b9050979650505050505050565b600061010082019050612323600083018b61218b565b612330602083018a611d4a565b81810360408301526123428189611e65565b905081810360608301526123568188611e65565b9050818103608083015261236a8187611e65565b905081810360a083015261237e8186611e65565b905081810360c08301526123928185611e65565b905081810360e08301526123a68184611e65565b90509998505050505050505050565b6000604051905081810181811067ffffffffffffffff821117156123dc576123db61266d565b5b8060405250919050565b600067ffffffffffffffff8211156124015761240061266d565b5b601f19601f8301169050602081019050919050565b6000819050602082019050919050565b6000819050602082019050919050565b600081519050919050565b600081519050919050565b600081519050919050565b6000602082019050919050565b6000602082019050919050565b600082825260208201905092915050565b600082825260208201905092915050565b600082825260208201905092915050565b600082825260208201905092915050565b600081905092915050565b60006124cb82612548565b91506124d683612548565b9250827fffffffffffffffffffffffffffffffffffffffffffffffffffffffffffffffff0382111561250b5761250a61260f565b5b828201905092915050565b600061252182612528565b9050919050565b600073ffffffffffffffffffffffffffffffffffffffff82169050919050565b6000819050919050565b82818337600083830152505050565b60005b8381101561257f578082015181840152602081019050612564565b8381111561258e576000848401525b50505050565b600060028204905060018216806125ac57607f821691505b602082108114156125c0576125bf61263e565b5b50919050565b60006125d182612548565b91507fffffffffffffffffffffffffffffffffffffffffffffffffffffffffffffffff8214156126045761260361260f565b5b600182019050919050565b7f4e487b7100000000000000000000000000000000000000000000000000000000600052601160045260246000fd5b7f4e487b7100000000000000000000000000000000000000000000000000000000600052602260045260246000fd5b7f4e487b7100000000000000000000000000000000000000000000000000000000600052604160045260246000fd5b6000601f19601f8301169050919050565b6126b681612516565b81146126c157600080fd5b50565b6126cd81612548565b81146126d857600080fd5b5056fea2646970667358221220aa98bacdeb35fe269da0e94f82ad8d7c1d161d5f6726ca84e851e5646b97eda964736f6c63430008000033",
  "linkReferences": {},
  "deployedLinkReferences": {}
}